{
  "contractName": "Project",
  "abi": [
    {
      "constant": true,
      "inputs": [],
      "name": "blockCreatedAt",
      "outputs": [
        {
          "name": "",
          "type": "uint256"
        }
      ],
      "payable": false,
      "stateMutability": "view",
      "type": "function"
    },
    {
      "constant": true,
      "inputs": [],
      "name": "goalDate",
      "outputs": [
        {
          "name": "",
          "type": "string"
        }
      ],
      "payable": false,
      "stateMutability": "view",
      "type": "function"
    },
    {
      "constant": true,
      "inputs": [],
      "name": "backersCount",
      "outputs": [
        {
          "name": "",
          "type": "uint16"
        }
      ],
      "payable": false,
      "stateMutability": "view",
      "type": "function"
    },
    {
      "constant": true,
      "inputs": [],
      "name": "goalEther",
      "outputs": [
        {
          "name": "",
          "type": "uint16"
        }
      ],
      "payable": false,
      "stateMutability": "view",
      "type": "function"
    },
    {
      "constant": true,
      "inputs": [],
      "name": "manager",
      "outputs": [
        {
          "name": "",
          "type": "address"
        }
      ],
      "payable": false,
      "stateMutability": "view",
      "type": "function"
    },
    {
      "constant": true,
      "inputs": [],
      "name": "title",
      "outputs": [
        {
          "name": "",
          "type": "string"
        }
      ],
      "payable": false,
      "stateMutability": "view",
      "type": "function"
    },
    {
      "constant": true,
      "inputs": [],
      "name": "description",
      "outputs": [
        {
          "name": "",
          "type": "string"
        }
      ],
      "payable": false,
      "stateMutability": "view",
      "type": "function"
    },
    {
      "inputs": [
        {
          "name": "_title",
          "type": "string"
        },
        {
          "name": "_description",
          "type": "string"
        },
        {
          "name": "_goalDate",
          "type": "string"
        },
        {
          "name": "_goalEther",
          "type": "uint16"
        },
        {
          "name": "_manager",
          "type": "address"
        }
      ],
      "payable": false,
      "stateMutability": "nonpayable",
      "type": "constructor"
    },
    {
      "anonymous": false,
      "inputs": [
        {
          "indexed": false,
          "name": "sender",
          "type": "address"
        }
      ],
      "name": "Contribute",
      "type": "event"
    },
    {
      "constant": false,
      "inputs": [
        {
          "name": "_contributerAddress",
          "type": "address"
        }
      ],
      "name": "contribute",
      "outputs": [],
      "payable": true,
      "stateMutability": "payable",
      "type": "function"
    },
    {
      "constant": true,
      "inputs": [],
      "name": "getSummary",
      "outputs": [
        {
          "name": "",
          "type": "address"
        },
        {
          "name": "",
          "type": "string"
        },
        {
          "name": "",
          "type": "string"
        },
        {
          "name": "",
          "type": "uint256"
        },
        {
          "name": "",
          "type": "uint16"
        }
      ],
      "payable": false,
      "stateMutability": "view",
      "type": "function"
    }
  ],
  "bytecode": "0x6060604052341561000f57600080fd5b604051610b99380380610b99833981016040528080518201919060200180518201919060200180518201919060200180519060200190919080519060200190919050508460019080519060200190610068929190610129565b50836002908051906020019061007f929190610129565b5043600381905550826004908051906020019061009d929190610129565b5081600560006101000a81548161ffff021916908361ffff160217905550806000806101000a81548173ffffffffffffffffffffffffffffffffffffffff021916908373ffffffffffffffffffffffffffffffffffffffff1602179055506001600560026101000a81548160ff0219169083600281111561011a57fe5b021790555050505050506101ce565b828054600181600116156101000203166002900490600052602060002090601f016020900481019282601f1061016a57805160ff1916838001178555610198565b82800160010185558215610198579182015b8281111561019757825182559160200191906001019061017c565b5b5090506101a591906101a9565b5090565b6101cb91905b808211156101c75760008160009055506001016101af565b5090565b90565b6109bc806101dd6000396000f300606060405260043610610098576000357c0100000000000000000000000000000000000000000000000000000000900463ffffffff168062087f221461009d5780631153679d146100c65780631d565e78146101545780633a88ddf9146101855780634051ddac146101b6578063481c6a75146102f95780634a79d50c1461034e5780637284e416146103dc57806373e888fd1461046a575b600080fd5b34156100a857600080fd5b6100b0610498565b6040518082815260200191505060405180910390f35b34156100d157600080fd5b6100d961049e565b6040518080602001828103825283818151815260200191508051906020019080838360005b838110156101195780820151818401526020810190506100fe565b50505050905090810190601f1680156101465780820380516001836020036101000a031916815260200191505b509250505060405180910390f35b341561015f57600080fd5b61016761053c565b604051808261ffff1661ffff16815260200191505060405180910390f35b341561019057600080fd5b610198610550565b604051808261ffff1661ffff16815260200191505060405180910390f35b34156101c157600080fd5b6101c9610564565b604051808673ffffffffffffffffffffffffffffffffffffffff1673ffffffffffffffffffffffffffffffffffffffff16815260200180602001806020018581526020018461ffff1661ffff168152602001838103835287818151815260200191508051906020019080838360005b83811015610253578082015181840152602081019050610238565b50505050905090810190601f1680156102805780820380516001836020036101000a031916815260200191505b50838103825286818151815260200191508051906020019080838360005b838110156102b957808201518184015260208101905061029e565b50505050905090810190601f1680156102e65780820380516001836020036101000a031916815260200191505b5097505050505050505060405180910390f35b341561030457600080fd5b61030c610711565b604051808273ffffffffffffffffffffffffffffffffffffffff1673ffffffffffffffffffffffffffffffffffffffff16815260200191505060405180910390f35b341561035957600080fd5b610361610736565b6040518080602001828103825283818151815260200191508051906020019080838360005b838110156103a1578082015181840152602081019050610386565b50505050905090810190601f1680156103ce5780820380516001836020036101000a031916815260200191505b509250505060405180910390f35b34156103e757600080fd5b6103ef6107d4565b6040518080602001828103825283818151815260200191508051906020019080838360005b8381101561042f578082015181840152602081019050610414565b50505050905090810190601f16801561045c5780820380516001836020036101000a031916815260200191505b509250505060405180910390f35b610496600480803573ffffffffffffffffffffffffffffffffffffffff16906020019091905050610872565b005b60035481565b60048054600181600116156101000203166002900480601f0160208091040260200160405190810160405280929190818152602001828054600181600116156101000203166002900480156105345780601f1061050957610100808354040283529160200191610534565b820191906000526020600020905b81548152906001019060200180831161051757829003601f168201915b505050505081565b600760009054906101000a900461ffff1681565b600560009054906101000a900461ffff1681565b600061056e61097c565b61057661097c565b6000806000809054906101000a900473ffffffffffffffffffffffffffffffffffffffff16600160023073ffffffffffffffffffffffffffffffffffffffff1631600760009054906101000a900461ffff16838054600181600116156101000203166002900480601f01602080910402602001604051908101604052809291908181526020018280546001816001161561010002031660029004801561065d5780601f106106325761010080835404028352916020019161065d565b820191906000526020600020905b81548152906001019060200180831161064057829003601f168201915b50505050509350828054600181600116156101000203166002900480601f0160208091040260200160405190810160405280929190818152602001828054600181600116156101000203166002900480156106f95780601f106106ce576101008083540402835291602001916106f9565b820191906000526020600020905b8154815290600101906020018083116106dc57829003601f168201915b50505050509250945094509450945094509091929394565b6000809054906101000a900473ffffffffffffffffffffffffffffffffffffffff1681565b60018054600181600116156101000203166002900480601f0160208091040260200160405190810160405280929190818152602001828054600181600116156101000203166002900480156107cc5780601f106107a1576101008083540402835291602001916107cc565b820191906000526020600020905b8154815290600101906020018083116107af57829003601f168201915b505050505081565b60028054600181600116156101000203166002900480601f01602080910402602001604051908101604052809291908181526020018280546001816001161561010002031660029004801561086a5780601f1061083f5761010080835404028352916020019161086a565b820191906000526020600020905b81548152906001019060200180831161084d57829003601f168201915b505050505081565b67016345785d8a0000341015151561088957600080fd5b6001600660008373ffffffffffffffffffffffffffffffffffffffff1673ffffffffffffffffffffffffffffffffffffffff16815260200190815260200160002060006101000a81548160ff0219169083151502179055506007600081819054906101000a900461ffff168092919060010191906101000a81548161ffff021916908361ffff160217905550507feb26121e73b1a2c6db5119033f264a3dd36e3e1298d38cda9e387836405861bd81604051808273ffffffffffffffffffffffffffffffffffffffff1673ffffffffffffffffffffffffffffffffffffffff16815260200191505060405180910390a150565b6020604051908101604052806000815250905600a165627a7a72305820cdcc8f213ba2750adefc6270f7365a7fab068848c7109e9a3e582f6faaaaa5440029",
  "source": "pragma solidity ^0.4.17;\n\n/// @title Base for CrowdChain project contracts. Holds all common structs, events, and base variables.\n/// @author Zac Messinger\n/// @dev See README.md for more info on contract functionality.\n\ncontract Project {\n\n    // @dev user-defined types\n    enum ProjectStatus {Paused, Active, Inactive}\n\n    // @dev Project ownership\n    address public manager;\n\n    // @dev Project metadata\n    string public title;\n    string public description;\n    uint256 public blockCreatedAt;\n    string public goalDate;\n    uint16 public goalEther;\n    ProjectStatus status;\n    \n    // @dev Project contributers\n    mapping(address => bool) backers;\n    uint16 public backersCount;\n\n    // @dev Project constant variables\n    uint constant MIN_CONTRIBUTION = 0.1 ether;\n\n    // @dev Emit contribution event\n    event Contribute(address sender);\n\n    // @dev public method for instantiating an instance of a project\n    // @params _title: Title of the the project\n    // @params _description: Description of the project\n    // @params _blockDeadLine: Target deadline for completion of fundraising.\n    // @params _fundingGoal: Target goal to be raised for the project (in Wei)\n    // @params _manager: Owner of the project\n    function Project(string _title, string _description, string _goalDate, uint16 _goalEther, address _manager) public {\n\n        title = _title;\n        description = _description;\n        blockCreatedAt = block.number;\n        goalDate = _goalDate;\n        goalEther = _goalEther;\n        manager = _manager;\n        status = ProjectStatus.Active;\n    }\n\n    // @dev public method for contributing ether to a project\n    function contribute(address _contributerAddress) public payable {\n        require(msg.value >= MIN_CONTRIBUTION);\n\n        backers[_contributerAddress] = true;\n        backersCount++;\n        Contribute(_contributerAddress);\n    }\n    \n    // @dev public method that returns the   following project data:\n    function getSummary() public view returns (address, string, string, uint256, uint16) {\n        return (\n            manager,\n            title,  \n            description,\n            this.balance,\n            backersCount\n        );\n    }\n}",
  "sourcePath": "/Users/zmessinger1/Desktop/Professional/Projects/DAPPS/CrowdChain/ethereum/contracts/Project.sol",
  "compiler": {
    "name": "solc",
    "version": "0.4.19+commit.c4cbbb05.Emscripten.clang"
  },
  "schemaVersion": "2.0.0",
  "updatedAt": "2018-03-16T00:51:04.809Z"
}