{
  "contractName": "ProjectFactory",
  "abi": [
    {
      "constant": true,
      "inputs": [
        {
          "name": "",
          "type": "uint256"
        }
      ],
      "name": "projects",
      "outputs": [
        {
          "name": "",
          "type": "address"
        }
      ],
      "payable": false,
      "stateMutability": "view",
      "type": "function"
    },
    {
      "constant": true,
      "inputs": [
        {
          "name": "",
          "type": "address"
        }
      ],
      "name": "ownerProjectCount",
      "outputs": [
        {
          "name": "",
          "type": "uint256"
        }
      ],
      "payable": false,
      "stateMutability": "view",
      "type": "function"
    },
    {
      "constant": true,
      "inputs": [],
      "name": "totalContributions",
      "outputs": [
        {
          "name": "",
          "type": "uint32"
        }
      ],
      "payable": false,
      "stateMutability": "view",
      "type": "function"
    },
    {
      "constant": true,
      "inputs": [
        {
          "name": "",
          "type": "uint256"
        }
      ],
      "name": "projectToIndexOwner",
      "outputs": [
        {
          "name": "",
          "type": "address"
        }
      ],
      "payable": false,
      "stateMutability": "view",
      "type": "function"
    },
    {
      "constant": true,
      "inputs": [],
      "name": "totalBackers",
      "outputs": [
        {
          "name": "",
          "type": "uint16"
        }
      ],
      "payable": false,
      "stateMutability": "view",
      "type": "function"
    },
    {
      "anonymous": false,
      "inputs": [
        {
          "indexed": false,
          "name": "title",
          "type": "string"
        },
        {
          "indexed": false,
          "name": "description",
          "type": "string"
        },
        {
          "indexed": false,
          "name": "manager",
          "type": "address"
        }
      ],
      "name": "ProjectCreation",
      "type": "event"
    },
    {
      "constant": false,
      "inputs": [
        {
          "name": "_title",
          "type": "string"
        },
        {
          "name": "_description",
          "type": "string"
        },
        {
          "name": "_blockDeadLine",
          "type": "uint256"
        },
        {
          "name": "_goalEther",
          "type": "uint16"
        }
      ],
      "name": "createProject",
      "outputs": [],
      "payable": false,
      "stateMutability": "nonpayable",
      "type": "function"
    },
    {
      "constant": false,
      "inputs": [
        {
          "name": "_projectAddress",
          "type": "address"
        }
      ],
      "name": "contributeToProject",
      "outputs": [],
      "payable": true,
      "stateMutability": "payable",
      "type": "function"
    },
    {
      "constant": true,
      "inputs": [],
      "name": "getSummary",
      "outputs": [
        {
          "name": "",
          "type": "uint256"
        },
        {
          "name": "",
          "type": "uint256"
        },
        {
          "name": "",
          "type": "uint256"
        }
      ],
      "payable": false,
      "stateMutability": "view",
      "type": "function"
    }
  ],
  "bytecode": "0x60606040526000600260006101000a81548163ffffffff021916908363ffffffff1602179055506000600260046101000a81548161ffff021916908361ffff160217905550341561004f57600080fd5b61150e8061005e6000396000f30060606040526004361061008e576000357c0100000000000000000000000000000000000000000000000000000000900463ffffffff1680630ccbe6af14610093578063107046bd146101495780631b26a7a5146101ac57806337c08923146101f95780634051ddac1461022e5780634105a4c6146102655780636665e47b146102c8578063ff6f4634146102f9575b600080fd5b341561009e57600080fd5b610147600480803590602001908201803590602001908080601f0160208091040260200160405190810160405280939291908181526020018383808284378201915050505050509190803590602001908201803590602001908080601f0160208091040260200160405190810160405280939291908181526020018383808284378201915050505050509190803590602001909190803561ffff16906020019091905050610327565b005b341561015457600080fd5b61016a60048080359060200190919050506106ba565b604051808273ffffffffffffffffffffffffffffffffffffffff1673ffffffffffffffffffffffffffffffffffffffff16815260200191505060405180910390f35b34156101b757600080fd5b6101e3600480803573ffffffffffffffffffffffffffffffffffffffff169060200190919050506106f9565b6040518082815260200191505060405180910390f35b341561020457600080fd5b61020c610711565b604051808263ffffffff1663ffffffff16815260200191505060405180910390f35b341561023957600080fd5b610241610727565b60405180848152602001838152602001828152602001935050505060405180910390f35b341561027057600080fd5b6102866004808035906020019091905050610771565b604051808273ffffffffffffffffffffffffffffffffffffffff1673ffffffffffffffffffffffffffffffffffffffff16815260200191505060405180910390f35b34156102d357600080fd5b6102db6107a4565b604051808261ffff1661ffff16815260200191505060405180910390f35b610325600480803573ffffffffffffffffffffffffffffffffffffffff169060200190919050506107b8565b005b6000600180805480600101828161033e91906109e7565b916000526020600020900160008888888833610358610a13565b8080602001806020018681526020018561ffff1661ffff1681526020018473ffffffffffffffffffffffffffffffffffffffff1673ffffffffffffffffffffffffffffffffffffffff168152602001838103835288818151815260200191508051906020019080838360005b838110156103df5780820151818401526020810190506103c4565b50505050905090810190601f16801561040c5780820380516001836020036101000a031916815260200191505b50838103825287818151815260200191508051906020019080838360005b8381101561044557808201518184015260208101905061042a565b50505050905090810190601f1680156104725780820380516001836020036101000a031916815260200191505b50975050505050505050604051809103906000f080151561049257600080fd5b909190916101000a81548173ffffffffffffffffffffffffffffffffffffffff021916908373ffffffffffffffffffffffffffffffffffffffff160217905550039050336004600083815260200190815260200160002060006101000a81548173ffffffffffffffffffffffffffffffffffffffff021916908373ffffffffffffffffffffffffffffffffffffffff160217905550600560003373ffffffffffffffffffffffffffffffffffffffff1673ffffffffffffffffffffffffffffffffffffffff168152602001908152602001600020600081548092919060010191905055507fde8b87f8cdc26b767d4a6adc9912c53cd7f7a50246dedf7d19de6e0c55dcb2db8585336040518080602001806020018473ffffffffffffffffffffffffffffffffffffffff1673ffffffffffffffffffffffffffffffffffffffff168152602001838103835286818151815260200191508051906020019080838360005b838110156106105780820151818401526020810190506105f5565b50505050905090810190601f16801561063d5780820380516001836020036101000a031916815260200191505b50838103825285818151815260200191508051906020019080838360005b8381101561067657808201518184015260208101905061065b565b50505050905090810190601f1680156106a35780820380516001836020036101000a031916815260200191505b509550505050505060405180910390a15050505050565b6001818154811015156106c957fe5b90600052602060002090016000915054906101000a900473ffffffffffffffffffffffffffffffffffffffff1681565b60056020528060005260406000206000915090505481565b600260009054906101000a900463ffffffff1681565b6000806000600260009054906101000a900463ffffffff16600260049054906101000a900461ffff166001805490508263ffffffff1692508161ffff169150925092509250909192565b60046020528060005260406000206000915054906101000a900473ffffffffffffffffffffffffffffffffffffffff1681565b600260049054906101000a900461ffff1681565b806000806101000a81548173ffffffffffffffffffffffffffffffffffffffff021916908373ffffffffffffffffffffffffffffffffffffffff1602179055506000809054906101000a900473ffffffffffffffffffffffffffffffffffffffff1673ffffffffffffffffffffffffffffffffffffffff166373e888fd34336040518363ffffffff167c0100000000000000000000000000000000000000000000000000000000028152600401808273ffffffffffffffffffffffffffffffffffffffff1673ffffffffffffffffffffffffffffffffffffffff1681526020019150506000604051808303818588803b15156108b357600080fd5b6125ee5a03f115156108c457600080fd5b505050506002600081819054906101000a900463ffffffff168092919060010191906101000a81548163ffffffff021916908363ffffffff16021790555050600360003373ffffffffffffffffffffffffffffffffffffffff1673ffffffffffffffffffffffffffffffffffffffff16815260200190815260200160002060009054906101000a900460ff1615156109e4576001600360003373ffffffffffffffffffffffffffffffffffffffff1673ffffffffffffffffffffffffffffffffffffffff16815260200190815260200160002060006101000a81548160ff0219169083151502179055506002600481819054906101000a900461ffff168092919060010191906101000a81548161ffff021916908361ffff160217905550505b50565b815481835581811511610a0e57818360005260206000209182019101610a0d9190610a23565b5b505050565b604051610a9a80610a4983390190565b610a4591905b80821115610a41576000816000905550600101610a29565b5090565b9056006060604052341561000f57600080fd5b604051610a9a380380610a9a83398101604052808051820191906020018051820191906020018051906020019091908051906020019091908051906020019091905050438311151561006057600080fd5b8460019080519060200190610076929190610127565b50836002908051906020019061008d929190610127565b50436003819055508260048190555081600560006101000a81548161ffff021916908361ffff160217905550806000806101000a81548173ffffffffffffffffffffffffffffffffffffffff021916908373ffffffffffffffffffffffffffffffffffffffff1602179055506001600560026101000a81548160ff0219169083600281111561011857fe5b021790555050505050506101cc565b828054600181600116156101000203166002900490600052602060002090601f016020900481019282601f1061016857805160ff1916838001178555610196565b82800160010185558215610196579182015b8281111561019557825182559160200191906001019061017a565b5b5090506101a391906101a7565b5090565b6101c991905b808211156101c55760008160009055506001016101ad565b5090565b90565b6108bf806101db6000396000f300606060405260043610610098576000357c0100000000000000000000000000000000000000000000000000000000900463ffffffff168062087f221461009d5780631d565e78146100c65780633a88ddf9146100f75780634051ddac14610128578063481c6a751461026b5780634a79d50c146102c05780637284e4161461034e57806373e888fd146103dc578063b2ab7ecc1461040a575b600080fd5b34156100a857600080fd5b6100b0610433565b6040518082815260200191505060405180910390f35b34156100d157600080fd5b6100d9610439565b604051808261ffff1661ffff16815260200191505060405180910390f35b341561010257600080fd5b61010a61044d565b604051808261ffff1661ffff16815260200191505060405180910390f35b341561013357600080fd5b61013b610461565b604051808673ffffffffffffffffffffffffffffffffffffffff1673ffffffffffffffffffffffffffffffffffffffff16815260200180602001806020018581526020018461ffff1661ffff168152602001838103835287818151815260200191508051906020019080838360005b838110156101c55780820151818401526020810190506101aa565b50505050905090810190601f1680156101f25780820380516001836020036101000a031916815260200191505b50838103825286818151815260200191508051906020019080838360005b8381101561022b578082015181840152602081019050610210565b50505050905090810190601f1680156102585780820380516001836020036101000a031916815260200191505b5097505050505050505060405180910390f35b341561027657600080fd5b61027e61060e565b604051808273ffffffffffffffffffffffffffffffffffffffff1673ffffffffffffffffffffffffffffffffffffffff16815260200191505060405180910390f35b34156102cb57600080fd5b6102d3610633565b6040518080602001828103825283818151815260200191508051906020019080838360005b838110156103135780820151818401526020810190506102f8565b50505050905090810190601f1680156103405780820380516001836020036101000a031916815260200191505b509250505060405180910390f35b341561035957600080fd5b6103616106d1565b6040518080602001828103825283818151815260200191508051906020019080838360005b838110156103a1578082015181840152602081019050610386565b50505050905090810190601f1680156103ce5780820380516001836020036101000a031916815260200191505b509250505060405180910390f35b610408600480803573ffffffffffffffffffffffffffffffffffffffff1690602001909190505061076f565b005b341561041557600080fd5b61041d610879565b6040518082815260200191505060405180910390f35b60035481565b600760009054906101000a900461ffff1681565b600560009054906101000a900461ffff1681565b600061046b61087f565b61047361087f565b6000806000809054906101000a900473ffffffffffffffffffffffffffffffffffffffff16600160023073ffffffffffffffffffffffffffffffffffffffff1631600760009054906101000a900461ffff16838054600181600116156101000203166002900480601f01602080910402602001604051908101604052809291908181526020018280546001816001161561010002031660029004801561055a5780601f1061052f5761010080835404028352916020019161055a565b820191906000526020600020905b81548152906001019060200180831161053d57829003601f168201915b50505050509350828054600181600116156101000203166002900480601f0160208091040260200160405190810160405280929190818152602001828054600181600116156101000203166002900480156105f65780601f106105cb576101008083540402835291602001916105f6565b820191906000526020600020905b8154815290600101906020018083116105d957829003601f168201915b50505050509250945094509450945094509091929394565b6000809054906101000a900473ffffffffffffffffffffffffffffffffffffffff1681565b60018054600181600116156101000203166002900480601f0160208091040260200160405190810160405280929190818152602001828054600181600116156101000203166002900480156106c95780601f1061069e576101008083540402835291602001916106c9565b820191906000526020600020905b8154815290600101906020018083116106ac57829003601f168201915b505050505081565b60028054600181600116156101000203166002900480601f0160208091040260200160405190810160405280929190818152602001828054600181600116156101000203166002900480156107675780601f1061073c57610100808354040283529160200191610767565b820191906000526020600020905b81548152906001019060200180831161074a57829003601f168201915b505050505081565b67016345785d8a0000341015151561078657600080fd5b6001600660008373ffffffffffffffffffffffffffffffffffffffff1673ffffffffffffffffffffffffffffffffffffffff16815260200190815260200160002060006101000a81548160ff0219169083151502179055506007600081819054906101000a900461ffff168092919060010191906101000a81548161ffff021916908361ffff160217905550507feb26121e73b1a2c6db5119033f264a3dd36e3e1298d38cda9e387836405861bd81604051808273ffffffffffffffffffffffffffffffffffffffff1673ffffffffffffffffffffffffffffffffffffffff16815260200191505060405180910390a150565b60045481565b6020604051908101604052806000815250905600a165627a7a7230582072d44ea355f31f79ce624224441607f4b91779556633bcec1bab64a1017293660029a165627a7a723058209895c045b3d2d9665655ae0d7d517ebb38905bff498ecfb1f033dd8528dbb6530029",
  "source": "pragma solidity ^0.4.17;\n\nimport './Project.sol';\n\ncontract ProjectFactory {\n\n    // Import project contract;\n    Project projectContract;\n\n    // ProjectFactory state variables.\n    Project[] public projects;\n    uint32 public totalContributions = 0;\n    uint16 public totalBackers = 0;\n    mapping(address => bool) backers;\n    mapping(uint => address) public projectToIndexOwner;\n    mapping(address => uint) public ownerProjectCount;\n\n    // ProjectFactory Events\n    event ProjectCreation(string title, string description, address manager);\n\n    function createProject(string _title, string _description, uint _blockDeadLine, uint16 _goalEther) public {\n        uint newProjectId = projects.push(new Project(_title, _description, _blockDeadLine, _goalEther, msg.sender)) - 1;\n        projectToIndexOwner[newProjectId] = msg.sender;\n        ownerProjectCount[msg.sender]++;\n        ProjectCreation(_title, _description, msg.sender);\n    }\n\n    function contributeToProject(address _projectAddress) public payable {\n        projectContract = Project(_projectAddress);\n        projectContract.contribute.value(msg.value)(msg.sender);\n        totalContributions++;\n\n        if (!backers[msg.sender]) {\n            backers[msg.sender] = true;\n            totalBackers++;\n        }\n    }\n\n    function getSummary() public view returns (uint, uint, uint) {\n        return (\n            totalContributions,\n            totalBackers,\n            projects.length\n        );\n    }\n\n}",
  "sourcePath": "/Users/zmessinger1/Desktop/Professional/Projects/DAPPS/CrowdCoin/ethereum/contracts/ProjectFactory.sol",
  "compiler": {
    "name": "solc",
    "version": "0.4.19+commit.c4cbbb05.Emscripten.clang"
  },
  "schemaVersion": "2.0.0",
  "updatedAt": "2018-03-01T00:19:35.109Z"
}