{
  "contractName": "ProjectFactory",
  "abi": [
    {
      "constant": true,
      "inputs": [
        {
          "name": "",
          "type": "uint256"
        }
      ],
      "name": "projects",
      "outputs": [
        {
          "name": "",
          "type": "address"
        }
      ],
      "payable": false,
      "stateMutability": "view",
      "type": "function"
    },
    {
      "constant": true,
      "inputs": [
        {
          "name": "",
          "type": "address"
        }
      ],
      "name": "ownerProjectCount",
      "outputs": [
        {
          "name": "",
          "type": "uint256"
        }
      ],
      "payable": false,
      "stateMutability": "view",
      "type": "function"
    },
    {
      "constant": true,
      "inputs": [],
      "name": "projectCount",
      "outputs": [
        {
          "name": "",
          "type": "uint32"
        }
      ],
      "payable": false,
      "stateMutability": "view",
      "type": "function"
    },
    {
      "constant": true,
      "inputs": [],
      "name": "totalContributions",
      "outputs": [
        {
          "name": "",
          "type": "uint32"
        }
      ],
      "payable": false,
      "stateMutability": "view",
      "type": "function"
    },
    {
      "constant": true,
      "inputs": [
        {
          "name": "",
          "type": "uint256"
        }
      ],
      "name": "projectToIndexOwner",
      "outputs": [
        {
          "name": "",
          "type": "address"
        }
      ],
      "payable": false,
      "stateMutability": "view",
      "type": "function"
    },
    {
      "constant": true,
      "inputs": [],
      "name": "totalBackers",
      "outputs": [
        {
          "name": "",
          "type": "uint16"
        }
      ],
      "payable": false,
      "stateMutability": "view",
      "type": "function"
    },
    {
      "constant": true,
      "inputs": [],
      "name": "biggestContribution",
      "outputs": [
        {
          "name": "",
          "type": "uint256"
        }
      ],
      "payable": false,
      "stateMutability": "view",
      "type": "function"
    },
    {
      "anonymous": false,
      "inputs": [
        {
          "indexed": false,
          "name": "title",
          "type": "string"
        },
        {
          "indexed": false,
          "name": "description",
          "type": "string"
        },
        {
          "indexed": false,
          "name": "manager",
          "type": "address"
        }
      ],
      "name": "ProjectCreation",
      "type": "event"
    },
    {
      "constant": false,
      "inputs": [
        {
          "name": "_title",
          "type": "string"
        },
        {
          "name": "_description",
          "type": "string"
        },
        {
          "name": "_goalDate",
          "type": "string"
        },
        {
          "name": "_goalEther",
          "type": "uint16"
        }
      ],
      "name": "createProject",
      "outputs": [
        {
          "name": "",
          "type": "uint256"
        }
      ],
      "payable": false,
      "stateMutability": "nonpayable",
      "type": "function"
    },
    {
      "constant": false,
      "inputs": [
        {
          "name": "_projectAddress",
          "type": "address"
        }
      ],
      "name": "contributeToProject",
      "outputs": [],
      "payable": true,
      "stateMutability": "payable",
      "type": "function"
    },
    {
      "constant": true,
      "inputs": [],
      "name": "getSummary",
      "outputs": [
        {
          "name": "",
          "type": "uint256"
        },
        {
          "name": "",
          "type": "uint256"
        },
        {
          "name": "",
          "type": "uint256"
        }
      ],
      "payable": false,
      "stateMutability": "view",
      "type": "function"
    },
    {
      "constant": true,
      "inputs": [],
      "name": "getDeployedProjects",
      "outputs": [
        {
          "name": "",
          "type": "address[]"
        }
      ],
      "payable": false,
      "stateMutability": "view",
      "type": "function"
    }
  ],
  "bytecode": "0x60606040526000600260006101000a81548163ffffffff021916908363ffffffff1602179055506000600260046101000a81548163ffffffff021916908363ffffffff1602179055506000600260086101000a81548161ffff021916908361ffff1602179055506000600355341561007657600080fd5b6118c0806100856000396000f3006060604052600436106100af576000357c0100000000000000000000000000000000000000000000000000000000900463ffffffff168063107046bd146100b45780631b26a7a51461011757806336fbad261461016457806337c08923146101995780634051ddac146101ce5780634105a4c6146102055780636665e47b146102685780637ac3886e14610299578063e440a55014610303578063f71025ba1461032c578063ff6f463414610430575b600080fd5b34156100bf57600080fd5b6100d5600480803590602001909190505061045e565b604051808273ffffffffffffffffffffffffffffffffffffffff1673ffffffffffffffffffffffffffffffffffffffff16815260200191505060405180910390f35b341561012257600080fd5b61014e600480803573ffffffffffffffffffffffffffffffffffffffff1690602001909190505061049d565b6040518082815260200191505060405180910390f35b341561016f57600080fd5b6101776104b5565b604051808263ffffffff1663ffffffff16815260200191505060405180910390f35b34156101a457600080fd5b6101ac6104cb565b604051808263ffffffff1663ffffffff16815260200191505060405180910390f35b34156101d957600080fd5b6101e16104e1565b60405180848152602001838152602001828152602001935050505060405180910390f35b341561021057600080fd5b610226600480803590602001909190505061052b565b604051808273ffffffffffffffffffffffffffffffffffffffff1673ffffffffffffffffffffffffffffffffffffffff16815260200191505060405180910390f35b341561027357600080fd5b61027b61055e565b604051808261ffff1661ffff16815260200191505060405180910390f35b34156102a457600080fd5b6102ac610572565b6040518080602001828103825283818151815260200191508051906020019060200280838360005b838110156102ef5780820151818401526020810190506102d4565b505050509050019250505060405180910390f35b341561030e57600080fd5b610316610606565b6040518082815260200191505060405180910390f35b341561033757600080fd5b61041a600480803590602001908201803590602001908080601f0160208091040260200160405190810160405280939291908181526020018383808284378201915050505050509190803590602001908201803590602001908080601f0160208091040260200160405190810160405280939291908181526020018383808284378201915050505050509190803590602001908201803590602001908080601f0160208091040260200160405190810160405280939291908181526020018383808284378201915050505050509190803561ffff1690602001909190505061060c565b6040518082815260200191505060405180910390f35b61045c600480803573ffffffffffffffffffffffffffffffffffffffff16906020019091905050610a45565b005b60018181548110151561046d57fe5b90600052602060002090016000915054906101000a900473ffffffffffffffffffffffffffffffffffffffff1681565b60066020528060005260406000206000915090505481565b600260009054906101000a900463ffffffff1681565b600260049054906101000a900463ffffffff1681565b6000806000600260049054906101000a900463ffffffff16600260089054906101000a900461ffff166001805490508263ffffffff1692508161ffff169150925092509250909192565b60056020528060005260406000206000915054906101000a900473ffffffffffffffffffffffffffffffffffffffff1681565b600260089054906101000a900461ffff1681565b61057a610c86565b60018054806020026020016040519081016040528092919081815260200182805480156105fc57602002820191906000526020600020905b8160009054906101000a900473ffffffffffffffffffffffffffffffffffffffff1673ffffffffffffffffffffffffffffffffffffffff16815260200190600101908083116105b2575b5050505050905090565b60035481565b60008060018080548060010182816106249190610c9a565b91600052602060002090016000898989893361063e610cc6565b808060200180602001806020018661ffff1661ffff1681526020018573ffffffffffffffffffffffffffffffffffffffff1673ffffffffffffffffffffffffffffffffffffffff168152602001848103845289818151815260200191508051906020019080838360005b838110156106c35780820151818401526020810190506106a8565b50505050905090810190601f1680156106f05780820380516001836020036101000a031916815260200191505b50848103835288818151815260200191508051906020019080838360005b8381101561072957808201518184015260208101905061070e565b50505050905090810190601f1680156107565780820380516001836020036101000a031916815260200191505b50848103825287818151815260200191508051906020019080838360005b8381101561078f578082015181840152602081019050610774565b50505050905090810190601f1680156107bc5780820380516001836020036101000a031916815260200191505b5098505050505050505050604051809103906000f08015156107dd57600080fd5b909190916101000a81548173ffffffffffffffffffffffffffffffffffffffff021916908373ffffffffffffffffffffffffffffffffffffffff160217905550039050336005600083815260200190815260200160002060006101000a81548173ffffffffffffffffffffffffffffffffffffffff021916908373ffffffffffffffffffffffffffffffffffffffff160217905550600660003373ffffffffffffffffffffffffffffffffffffffff1673ffffffffffffffffffffffffffffffffffffffff168152602001908152602001600020600081548092919060010191905055506002600081819054906101000a900463ffffffff168092919060010191906101000a81548163ffffffff021916908363ffffffff160217905550507fde8b87f8cdc26b767d4a6adc9912c53cd7f7a50246dedf7d19de6e0c55dcb2db8686336040518080602001806020018473ffffffffffffffffffffffffffffffffffffffff1673ffffffffffffffffffffffffffffffffffffffff168152602001838103835286818151815260200191508051906020019080838360005b8381101561099657808201518184015260208101905061097b565b50505050905090810190601f1680156109c35780820380516001836020036101000a031916815260200191505b50838103825285818151815260200191508051906020019080838360005b838110156109fc5780820151818401526020810190506109e1565b50505050905090810190601f168015610a295780820380516001836020036101000a031916815260200191505b509550505050505060405180910390a180915050949350505050565b806000806101000a81548173ffffffffffffffffffffffffffffffffffffffff021916908373ffffffffffffffffffffffffffffffffffffffff1602179055506000809054906101000a900473ffffffffffffffffffffffffffffffffffffffff1673ffffffffffffffffffffffffffffffffffffffff166373e888fd34336040518363ffffffff167c0100000000000000000000000000000000000000000000000000000000028152600401808273ffffffffffffffffffffffffffffffffffffffff1673ffffffffffffffffffffffffffffffffffffffff1681526020019150506000604051808303818588803b1515610b4057600080fd5b6125ee5a03f11515610b5157600080fd5b505050506002600481819054906101000a900463ffffffff168092919060010191906101000a81548163ffffffff021916908363ffffffff16021790555050600460003373ffffffffffffffffffffffffffffffffffffffff1673ffffffffffffffffffffffffffffffffffffffff16815260200190815260200160002060009054906101000a900460ff161515610c71576001600460003373ffffffffffffffffffffffffffffffffffffffff1673ffffffffffffffffffffffffffffffffffffffff16815260200190815260200160002060006101000a81548160ff0219169083151502179055506002600881819054906101000a900461ffff168092919060010191906101000a81548161ffff021916908361ffff160217905550505b600354341115610c8357346003819055505b50565b602060405190810160405280600081525090565b815481835581811511610cc157818360005260206000209182019101610cc09190610cd6565b5b505050565b604051610b9980610cfc83390190565b610cf891905b80821115610cf4576000816000905550600101610cdc565b5090565b9056006060604052341561000f57600080fd5b604051610b99380380610b99833981016040528080518201919060200180518201919060200180518201919060200180519060200190919080519060200190919050508460019080519060200190610068929190610129565b50836002908051906020019061007f929190610129565b5043600381905550826004908051906020019061009d929190610129565b5081600560006101000a81548161ffff021916908361ffff160217905550806000806101000a81548173ffffffffffffffffffffffffffffffffffffffff021916908373ffffffffffffffffffffffffffffffffffffffff1602179055506001600560026101000a81548160ff0219169083600281111561011a57fe5b021790555050505050506101ce565b828054600181600116156101000203166002900490600052602060002090601f016020900481019282601f1061016a57805160ff1916838001178555610198565b82800160010185558215610198579182015b8281111561019757825182559160200191906001019061017c565b5b5090506101a591906101a9565b5090565b6101cb91905b808211156101c75760008160009055506001016101af565b5090565b90565b6109bc806101dd6000396000f300606060405260043610610098576000357c0100000000000000000000000000000000000000000000000000000000900463ffffffff168062087f221461009d5780631153679d146100c65780631d565e78146101545780633a88ddf9146101855780634051ddac146101b6578063481c6a75146102f95780634a79d50c1461034e5780637284e416146103dc57806373e888fd1461046a575b600080fd5b34156100a857600080fd5b6100b0610498565b6040518082815260200191505060405180910390f35b34156100d157600080fd5b6100d961049e565b6040518080602001828103825283818151815260200191508051906020019080838360005b838110156101195780820151818401526020810190506100fe565b50505050905090810190601f1680156101465780820380516001836020036101000a031916815260200191505b509250505060405180910390f35b341561015f57600080fd5b61016761053c565b604051808261ffff1661ffff16815260200191505060405180910390f35b341561019057600080fd5b610198610550565b604051808261ffff1661ffff16815260200191505060405180910390f35b34156101c157600080fd5b6101c9610564565b604051808673ffffffffffffffffffffffffffffffffffffffff1673ffffffffffffffffffffffffffffffffffffffff16815260200180602001806020018581526020018461ffff1661ffff168152602001838103835287818151815260200191508051906020019080838360005b83811015610253578082015181840152602081019050610238565b50505050905090810190601f1680156102805780820380516001836020036101000a031916815260200191505b50838103825286818151815260200191508051906020019080838360005b838110156102b957808201518184015260208101905061029e565b50505050905090810190601f1680156102e65780820380516001836020036101000a031916815260200191505b5097505050505050505060405180910390f35b341561030457600080fd5b61030c610711565b604051808273ffffffffffffffffffffffffffffffffffffffff1673ffffffffffffffffffffffffffffffffffffffff16815260200191505060405180910390f35b341561035957600080fd5b610361610736565b6040518080602001828103825283818151815260200191508051906020019080838360005b838110156103a1578082015181840152602081019050610386565b50505050905090810190601f1680156103ce5780820380516001836020036101000a031916815260200191505b509250505060405180910390f35b34156103e757600080fd5b6103ef6107d4565b6040518080602001828103825283818151815260200191508051906020019080838360005b8381101561042f578082015181840152602081019050610414565b50505050905090810190601f16801561045c5780820380516001836020036101000a031916815260200191505b509250505060405180910390f35b610496600480803573ffffffffffffffffffffffffffffffffffffffff16906020019091905050610872565b005b60035481565b60048054600181600116156101000203166002900480601f0160208091040260200160405190810160405280929190818152602001828054600181600116156101000203166002900480156105345780601f1061050957610100808354040283529160200191610534565b820191906000526020600020905b81548152906001019060200180831161051757829003601f168201915b505050505081565b600760009054906101000a900461ffff1681565b600560009054906101000a900461ffff1681565b600061056e61097c565b61057661097c565b6000806000809054906101000a900473ffffffffffffffffffffffffffffffffffffffff16600160023073ffffffffffffffffffffffffffffffffffffffff1631600760009054906101000a900461ffff16838054600181600116156101000203166002900480601f01602080910402602001604051908101604052809291908181526020018280546001816001161561010002031660029004801561065d5780601f106106325761010080835404028352916020019161065d565b820191906000526020600020905b81548152906001019060200180831161064057829003601f168201915b50505050509350828054600181600116156101000203166002900480601f0160208091040260200160405190810160405280929190818152602001828054600181600116156101000203166002900480156106f95780601f106106ce576101008083540402835291602001916106f9565b820191906000526020600020905b8154815290600101906020018083116106dc57829003601f168201915b50505050509250945094509450945094509091929394565b6000809054906101000a900473ffffffffffffffffffffffffffffffffffffffff1681565b60018054600181600116156101000203166002900480601f0160208091040260200160405190810160405280929190818152602001828054600181600116156101000203166002900480156107cc5780601f106107a1576101008083540402835291602001916107cc565b820191906000526020600020905b8154815290600101906020018083116107af57829003601f168201915b505050505081565b60028054600181600116156101000203166002900480601f01602080910402602001604051908101604052809291908181526020018280546001816001161561010002031660029004801561086a5780601f1061083f5761010080835404028352916020019161086a565b820191906000526020600020905b81548152906001019060200180831161084d57829003601f168201915b505050505081565b67016345785d8a0000341015151561088957600080fd5b6001600660008373ffffffffffffffffffffffffffffffffffffffff1673ffffffffffffffffffffffffffffffffffffffff16815260200190815260200160002060006101000a81548160ff0219169083151502179055506007600081819054906101000a900461ffff168092919060010191906101000a81548161ffff021916908361ffff160217905550507feb26121e73b1a2c6db5119033f264a3dd36e3e1298d38cda9e387836405861bd81604051808273ffffffffffffffffffffffffffffffffffffffff1673ffffffffffffffffffffffffffffffffffffffff16815260200191505060405180910390a150565b6020604051908101604052806000815250905600a165627a7a72305820cdcc8f213ba2750adefc6270f7365a7fab068848c7109e9a3e582f6faaaaa5440029a165627a7a72305820bad8308efce4f2533a1e6811b56dfe91f6b0b709287289027a85aa128dbef5930029",
  "source": "pragma solidity ^0.4.17;\n\nimport './Project.sol';\n\ncontract ProjectFactory {\n\n    // Import project contract;\n    Project projectContract;\n\n    // ProjectFactory state variables.\n    Project[] public projects;\n    uint32 public projectCount = 0;\n    uint32 public totalContributions = 0;\n    uint16 public totalBackers = 0;\n    uint256 public biggestContribution = 0;\n    mapping(address => bool) backers;\n    mapping(uint => address) public projectToIndexOwner;\n    mapping(address => uint) public ownerProjectCount;\n\n    // ProjectFactory Events\n    event ProjectCreation(string title, string description, address manager);\n\n    function createProject(string _title, string _description, string _goalDate, uint16 _goalEther) public returns (uint) {\n        uint newProjectId = projects.push(new Project(_title, _description, _goalDate, _goalEther, msg.sender)) - 1;\n        projectToIndexOwner[newProjectId] = msg.sender;\n        ownerProjectCount[msg.sender]++;\n        projectCount++;\n        ProjectCreation(_title, _description, msg.sender);\n        return (newProjectId);\n    }\n\n    function contributeToProject(address _projectAddress) public payable {\n        projectContract = Project(_projectAddress);\n        projectContract.contribute.value(msg.value)(msg.sender);\n        totalContributions++;\n\n        if (!backers[msg.sender]) {\n            backers[msg.sender] = true;\n            totalBackers++;\n        }\n\n        if (msg.value > biggestContribution) {\n            biggestContribution = msg.value;\n        }\n    }\n\n    function getSummary() public view returns (uint, uint, uint) {\n        return (\n            totalContributions,\n            totalBackers,\n            projects.length\n        );\n    }\n\n    function getDeployedProjects() public view returns (Project[]) {\n        return projects;\n    }\n\n}",
  "sourcePath": "/Users/zmessinger1/Desktop/Professional/Projects/DAPPS/CrowdChain/ethereum/contracts/ProjectFactory.sol",
  "compiler": {
    "name": "solc",
    "version": "0.4.19+commit.c4cbbb05.Emscripten.clang"
  },
  "schemaVersion": "2.0.0",
  "updatedAt": "2018-03-16T00:51:04.814Z"
}