{
  "contractName": "Project",
  "abi": [
    {
      "constant": true,
      "inputs": [],
      "name": "blockCreatedAt",
      "outputs": [
        {
          "name": "",
          "type": "uint256"
        }
      ],
      "payable": false,
      "stateMutability": "view",
      "type": "function"
    },
    {
      "constant": true,
      "inputs": [],
      "name": "backersCount",
      "outputs": [
        {
          "name": "",
          "type": "uint16"
        }
      ],
      "payable": false,
      "stateMutability": "view",
      "type": "function"
    },
    {
      "constant": true,
      "inputs": [],
      "name": "goalEther",
      "outputs": [
        {
          "name": "",
          "type": "uint16"
        }
      ],
      "payable": false,
      "stateMutability": "view",
      "type": "function"
    },
    {
      "constant": true,
      "inputs": [],
      "name": "manager",
      "outputs": [
        {
          "name": "",
          "type": "address"
        }
      ],
      "payable": false,
      "stateMutability": "view",
      "type": "function"
    },
    {
      "constant": true,
      "inputs": [],
      "name": "title",
      "outputs": [
        {
          "name": "",
          "type": "string"
        }
      ],
      "payable": false,
      "stateMutability": "view",
      "type": "function"
    },
    {
      "constant": true,
      "inputs": [],
      "name": "description",
      "outputs": [
        {
          "name": "",
          "type": "string"
        }
      ],
      "payable": false,
      "stateMutability": "view",
      "type": "function"
    },
    {
      "constant": true,
      "inputs": [],
      "name": "blockDeadLine",
      "outputs": [
        {
          "name": "",
          "type": "uint256"
        }
      ],
      "payable": false,
      "stateMutability": "view",
      "type": "function"
    },
    {
      "inputs": [
        {
          "name": "_title",
          "type": "string"
        },
        {
          "name": "_description",
          "type": "string"
        },
        {
          "name": "_blockDeadLine",
          "type": "uint256"
        },
        {
          "name": "_goalEther",
          "type": "uint16"
        },
        {
          "name": "_manager",
          "type": "address"
        }
      ],
      "payable": false,
      "stateMutability": "nonpayable",
      "type": "constructor"
    },
    {
      "anonymous": false,
      "inputs": [
        {
          "indexed": false,
          "name": "sender",
          "type": "address"
        }
      ],
      "name": "Contribute",
      "type": "event"
    },
    {
      "constant": false,
      "inputs": [
        {
          "name": "_contributerAddress",
          "type": "address"
        }
      ],
      "name": "contribute",
      "outputs": [],
      "payable": true,
      "stateMutability": "payable",
      "type": "function"
    },
    {
      "constant": true,
      "inputs": [],
      "name": "getSummary",
      "outputs": [
        {
          "name": "",
          "type": "address"
        },
        {
          "name": "",
          "type": "string"
        },
        {
          "name": "",
          "type": "string"
        },
        {
          "name": "",
          "type": "uint256"
        },
        {
          "name": "",
          "type": "uint16"
        }
      ],
      "payable": false,
      "stateMutability": "view",
      "type": "function"
    }
  ],
  "bytecode": "0x6060604052341561000f57600080fd5b604051610a9a380380610a9a83398101604052808051820191906020018051820191906020018051906020019091908051906020019091908051906020019091905050438311151561006057600080fd5b8460019080519060200190610076929190610127565b50836002908051906020019061008d929190610127565b50436003819055508260048190555081600560006101000a81548161ffff021916908361ffff160217905550806000806101000a81548173ffffffffffffffffffffffffffffffffffffffff021916908373ffffffffffffffffffffffffffffffffffffffff1602179055506001600560026101000a81548160ff0219169083600281111561011857fe5b021790555050505050506101cc565b828054600181600116156101000203166002900490600052602060002090601f016020900481019282601f1061016857805160ff1916838001178555610196565b82800160010185558215610196579182015b8281111561019557825182559160200191906001019061017a565b5b5090506101a391906101a7565b5090565b6101c991905b808211156101c55760008160009055506001016101ad565b5090565b90565b6108bf806101db6000396000f300606060405260043610610098576000357c0100000000000000000000000000000000000000000000000000000000900463ffffffff168062087f221461009d5780631d565e78146100c65780633a88ddf9146100f75780634051ddac14610128578063481c6a751461026b5780634a79d50c146102c05780637284e4161461034e57806373e888fd146103dc578063b2ab7ecc1461040a575b600080fd5b34156100a857600080fd5b6100b0610433565b6040518082815260200191505060405180910390f35b34156100d157600080fd5b6100d9610439565b604051808261ffff1661ffff16815260200191505060405180910390f35b341561010257600080fd5b61010a61044d565b604051808261ffff1661ffff16815260200191505060405180910390f35b341561013357600080fd5b61013b610461565b604051808673ffffffffffffffffffffffffffffffffffffffff1673ffffffffffffffffffffffffffffffffffffffff16815260200180602001806020018581526020018461ffff1661ffff168152602001838103835287818151815260200191508051906020019080838360005b838110156101c55780820151818401526020810190506101aa565b50505050905090810190601f1680156101f25780820380516001836020036101000a031916815260200191505b50838103825286818151815260200191508051906020019080838360005b8381101561022b578082015181840152602081019050610210565b50505050905090810190601f1680156102585780820380516001836020036101000a031916815260200191505b5097505050505050505060405180910390f35b341561027657600080fd5b61027e61060e565b604051808273ffffffffffffffffffffffffffffffffffffffff1673ffffffffffffffffffffffffffffffffffffffff16815260200191505060405180910390f35b34156102cb57600080fd5b6102d3610633565b6040518080602001828103825283818151815260200191508051906020019080838360005b838110156103135780820151818401526020810190506102f8565b50505050905090810190601f1680156103405780820380516001836020036101000a031916815260200191505b509250505060405180910390f35b341561035957600080fd5b6103616106d1565b6040518080602001828103825283818151815260200191508051906020019080838360005b838110156103a1578082015181840152602081019050610386565b50505050905090810190601f1680156103ce5780820380516001836020036101000a031916815260200191505b509250505060405180910390f35b610408600480803573ffffffffffffffffffffffffffffffffffffffff1690602001909190505061076f565b005b341561041557600080fd5b61041d610879565b6040518082815260200191505060405180910390f35b60035481565b600760009054906101000a900461ffff1681565b600560009054906101000a900461ffff1681565b600061046b61087f565b61047361087f565b6000806000809054906101000a900473ffffffffffffffffffffffffffffffffffffffff16600160023073ffffffffffffffffffffffffffffffffffffffff1631600760009054906101000a900461ffff16838054600181600116156101000203166002900480601f01602080910402602001604051908101604052809291908181526020018280546001816001161561010002031660029004801561055a5780601f1061052f5761010080835404028352916020019161055a565b820191906000526020600020905b81548152906001019060200180831161053d57829003601f168201915b50505050509350828054600181600116156101000203166002900480601f0160208091040260200160405190810160405280929190818152602001828054600181600116156101000203166002900480156105f65780601f106105cb576101008083540402835291602001916105f6565b820191906000526020600020905b8154815290600101906020018083116105d957829003601f168201915b50505050509250945094509450945094509091929394565b6000809054906101000a900473ffffffffffffffffffffffffffffffffffffffff1681565b60018054600181600116156101000203166002900480601f0160208091040260200160405190810160405280929190818152602001828054600181600116156101000203166002900480156106c95780601f1061069e576101008083540402835291602001916106c9565b820191906000526020600020905b8154815290600101906020018083116106ac57829003601f168201915b505050505081565b60028054600181600116156101000203166002900480601f0160208091040260200160405190810160405280929190818152602001828054600181600116156101000203166002900480156107675780601f1061073c57610100808354040283529160200191610767565b820191906000526020600020905b81548152906001019060200180831161074a57829003601f168201915b505050505081565b67016345785d8a0000341015151561078657600080fd5b6001600660008373ffffffffffffffffffffffffffffffffffffffff1673ffffffffffffffffffffffffffffffffffffffff16815260200190815260200160002060006101000a81548160ff0219169083151502179055506007600081819054906101000a900461ffff168092919060010191906101000a81548161ffff021916908361ffff160217905550507feb26121e73b1a2c6db5119033f264a3dd36e3e1298d38cda9e387836405861bd81604051808273ffffffffffffffffffffffffffffffffffffffff1673ffffffffffffffffffffffffffffffffffffffff16815260200191505060405180910390a150565b60045481565b6020604051908101604052806000815250905600a165627a7a7230582072d44ea355f31f79ce624224441607f4b91779556633bcec1bab64a1017293660029",
  "source": "pragma solidity ^0.4.17;\n\ncontract Project {\n\n    // Project user-defined types\n    enum ProjectStatus {Paused, Active, Inactive}\n\n    // Project ownership\n    address public manager;\n\n    // Project metadata\n    string public title;\n    string public description;\n    uint256 public blockCreatedAt;\n    uint256 public blockDeadLine;\n    uint16 public goalEther;\n    ProjectStatus status;\n    \n    // Project contributers\n    mapping(address => bool) backers;\n    uint16 public backersCount;\n\n    // Project constant variables\n    uint constant MIN_CONTRIBUTION = 0.1 ether;\n\n    // Project events\n    event Contribute(address sender);\n\n    function Project(string _title, string _description, uint _blockDeadLine, uint16 _goalEther, address _manager) public {\n        require(_blockDeadLine > block.number);\n\n        title = _title;\n        description = _description;\n        blockCreatedAt = block.number;\n        blockDeadLine = _blockDeadLine;\n        goalEther = _goalEther;\n        manager = _manager;\n        status = ProjectStatus.Active;\n    }\n\n    function contribute(address _contributerAddress) public payable {\n        require(msg.value >= MIN_CONTRIBUTION);\n\n        backers[_contributerAddress] = true;\n        backersCount++;\n        Contribute(_contributerAddress);\n    }\n    \n    function getSummary() public view returns (address, string, string, uint256, uint16) {\n        return (\n            manager,\n            title,  \n            description,\n            this.balance,\n            backersCount\n        );\n    }\n}",
  "sourcePath": "/Users/zmessinger1/Desktop/Professional/Projects/DAPPS/CrowdCoin/ethereum/contracts/Project.sol",
  "compiler": {
    "name": "solc",
    "version": "0.4.19+commit.c4cbbb05.Emscripten.clang"
  },
  "schemaVersion": "2.0.0",
  "updatedAt": "2018-02-28T23:54:33.043Z"
}