{
  "contractName": "Project",
  "abi": [
    {
      "constant": true,
      "inputs": [],
      "name": "blockCreatedAt",
      "outputs": [
        {
          "name": "",
          "type": "uint256"
        }
      ],
      "payable": false,
      "stateMutability": "view",
      "type": "function"
    },
    {
      "constant": true,
      "inputs": [],
      "name": "backersCount",
      "outputs": [
        {
          "name": "",
          "type": "uint16"
        }
      ],
      "payable": false,
      "stateMutability": "view",
      "type": "function"
    },
    {
      "constant": true,
      "inputs": [],
      "name": "manager",
      "outputs": [
        {
          "name": "",
          "type": "address"
        }
      ],
      "payable": false,
      "stateMutability": "view",
      "type": "function"
    },
    {
      "constant": true,
      "inputs": [],
      "name": "title",
      "outputs": [
        {
          "name": "",
          "type": "string"
        }
      ],
      "payable": false,
      "stateMutability": "view",
      "type": "function"
    },
    {
      "constant": true,
      "inputs": [],
      "name": "description",
      "outputs": [
        {
          "name": "",
          "type": "string"
        }
      ],
      "payable": false,
      "stateMutability": "view",
      "type": "function"
    },
    {
      "constant": true,
      "inputs": [],
      "name": "fundingGoal",
      "outputs": [
        {
          "name": "",
          "type": "uint16"
        }
      ],
      "payable": false,
      "stateMutability": "view",
      "type": "function"
    },
    {
      "constant": true,
      "inputs": [],
      "name": "blockDeadLine",
      "outputs": [
        {
          "name": "",
          "type": "uint256"
        }
      ],
      "payable": false,
      "stateMutability": "view",
      "type": "function"
    },
    {
      "inputs": [
        {
          "name": "_title",
          "type": "string"
        },
        {
          "name": "_description",
          "type": "string"
        },
        {
          "name": "_blockDeadLine",
          "type": "uint256"
        },
        {
          "name": "_fundingGoal",
          "type": "uint16"
        },
        {
          "name": "_manager",
          "type": "address"
        }
      ],
      "payable": false,
      "stateMutability": "nonpayable",
      "type": "constructor"
    },
    {
      "anonymous": false,
      "inputs": [
        {
          "indexed": false,
          "name": "sender",
          "type": "address"
        }
      ],
      "name": "Contribute",
      "type": "event"
    },
    {
      "constant": false,
      "inputs": [
        {
          "name": "_contributerAddress",
          "type": "address"
        }
      ],
      "name": "contribute",
      "outputs": [],
      "payable": true,
      "stateMutability": "payable",
      "type": "function"
    },
    {
      "constant": true,
      "inputs": [],
      "name": "getSummary",
      "outputs": [
        {
          "name": "",
          "type": "address"
        },
        {
          "name": "",
          "type": "string"
        },
        {
          "name": "",
          "type": "string"
        },
        {
          "name": "",
          "type": "uint256"
        },
        {
          "name": "",
          "type": "uint16"
        }
      ],
      "payable": false,
      "stateMutability": "view",
      "type": "function"
    }
  ],
  "bytecode": "0x6060604052341561000f57600080fd5b604051610a9a380380610a9a83398101604052808051820191906020018051820191906020018051906020019091908051906020019091908051906020019091905050438311151561006057600080fd5b8460019080519060200190610076929190610127565b50836002908051906020019061008d929190610127565b50436003819055508260048190555081600560006101000a81548161ffff021916908361ffff160217905550806000806101000a81548173ffffffffffffffffffffffffffffffffffffffff021916908373ffffffffffffffffffffffffffffffffffffffff1602179055506001600560026101000a81548160ff0219169083600281111561011857fe5b021790555050505050506101cc565b828054600181600116156101000203166002900490600052602060002090601f016020900481019282601f1061016857805160ff1916838001178555610196565b82800160010185558215610196579182015b8281111561019557825182559160200191906001019061017a565b5b5090506101a391906101a7565b5090565b6101c991905b808211156101c55760008160009055506001016101ad565b5090565b90565b6108bf806101db6000396000f300606060405260043610610098576000357c0100000000000000000000000000000000000000000000000000000000900463ffffffff168062087f221461009d5780631d565e78146100c65780634051ddac146100f7578063481c6a751461023a5780634a79d50c1461028f5780637284e4161461031d57806373e888fd146103ab5780637a3a0e84146103d9578063b2ab7ecc1461040a575b600080fd5b34156100a857600080fd5b6100b0610433565b6040518082815260200191505060405180910390f35b34156100d157600080fd5b6100d9610439565b604051808261ffff1661ffff16815260200191505060405180910390f35b341561010257600080fd5b61010a61044d565b604051808673ffffffffffffffffffffffffffffffffffffffff1673ffffffffffffffffffffffffffffffffffffffff16815260200180602001806020018581526020018461ffff1661ffff168152602001838103835287818151815260200191508051906020019080838360005b83811015610194578082015181840152602081019050610179565b50505050905090810190601f1680156101c15780820380516001836020036101000a031916815260200191505b50838103825286818151815260200191508051906020019080838360005b838110156101fa5780820151818401526020810190506101df565b50505050905090810190601f1680156102275780820380516001836020036101000a031916815260200191505b5097505050505050505060405180910390f35b341561024557600080fd5b61024d6105fa565b604051808273ffffffffffffffffffffffffffffffffffffffff1673ffffffffffffffffffffffffffffffffffffffff16815260200191505060405180910390f35b341561029a57600080fd5b6102a261061f565b6040518080602001828103825283818151815260200191508051906020019080838360005b838110156102e25780820151818401526020810190506102c7565b50505050905090810190601f16801561030f5780820380516001836020036101000a031916815260200191505b509250505060405180910390f35b341561032857600080fd5b6103306106bd565b6040518080602001828103825283818151815260200191508051906020019080838360005b83811015610370578082015181840152602081019050610355565b50505050905090810190601f16801561039d5780820380516001836020036101000a031916815260200191505b509250505060405180910390f35b6103d7600480803573ffffffffffffffffffffffffffffffffffffffff1690602001909190505061075b565b005b34156103e457600080fd5b6103ec610865565b604051808261ffff1661ffff16815260200191505060405180910390f35b341561041557600080fd5b61041d610879565b6040518082815260200191505060405180910390f35b60035481565b600760009054906101000a900461ffff1681565b600061045761087f565b61045f61087f565b6000806000809054906101000a900473ffffffffffffffffffffffffffffffffffffffff16600160023073ffffffffffffffffffffffffffffffffffffffff1631600760009054906101000a900461ffff16838054600181600116156101000203166002900480601f0160208091040260200160405190810160405280929190818152602001828054600181600116156101000203166002900480156105465780601f1061051b57610100808354040283529160200191610546565b820191906000526020600020905b81548152906001019060200180831161052957829003601f168201915b50505050509350828054600181600116156101000203166002900480601f0160208091040260200160405190810160405280929190818152602001828054600181600116156101000203166002900480156105e25780601f106105b7576101008083540402835291602001916105e2565b820191906000526020600020905b8154815290600101906020018083116105c557829003601f168201915b50505050509250945094509450945094509091929394565b6000809054906101000a900473ffffffffffffffffffffffffffffffffffffffff1681565b60018054600181600116156101000203166002900480601f0160208091040260200160405190810160405280929190818152602001828054600181600116156101000203166002900480156106b55780601f1061068a576101008083540402835291602001916106b5565b820191906000526020600020905b81548152906001019060200180831161069857829003601f168201915b505050505081565b60028054600181600116156101000203166002900480601f0160208091040260200160405190810160405280929190818152602001828054600181600116156101000203166002900480156107535780601f1061072857610100808354040283529160200191610753565b820191906000526020600020905b81548152906001019060200180831161073657829003601f168201915b505050505081565b67016345785d8a0000341015151561077257600080fd5b6001600660008373ffffffffffffffffffffffffffffffffffffffff1673ffffffffffffffffffffffffffffffffffffffff16815260200190815260200160002060006101000a81548160ff0219169083151502179055506007600081819054906101000a900461ffff168092919060010191906101000a81548161ffff021916908361ffff160217905550507feb26121e73b1a2c6db5119033f264a3dd36e3e1298d38cda9e387836405861bd81604051808273ffffffffffffffffffffffffffffffffffffffff1673ffffffffffffffffffffffffffffffffffffffff16815260200191505060405180910390a150565b600560009054906101000a900461ffff1681565b60045481565b6020604051908101604052806000815250905600a165627a7a72305820446bd93f970186a8661f0872051cd1b263bbb4a37c8f7c37e9e4ae88045a16df0029",
  "source": "pragma solidity ^0.4.17;\n\n/// @title Base for CrowdChain project contracts. Holds all common structs, events, and base variables.\n/// @author Zac Messinger\n/// @dev See README.md for more info on contract functionality.\n\ncontract Project {\n\n    // @dev user-defined types\n    enum ProjectStatus {Paused, Active, Inactive}\n\n    // @dev Project ownership\n    address public manager;\n\n    // @dev Project metadata\n    string public title;\n    string public description;\n    uint256 public blockCreatedAt;\n    uint256 public blockDeadLine;\n    uint16 public fundingGoal;\n    ProjectStatus status;\n    \n    // @dev Project contributers\n    mapping(address => bool) backers;\n    uint16 public backersCount;\n\n    // @dev Project constant variables\n    uint constant MIN_CONTRIBUTION = 0.1 ether;\n\n    // @dev Emit contribution event\n    event Contribute(address sender);\n\n    // @dev public method for instantiating an instance of a project\n    // @params _title: Title of the the project\n    // @params _description: Description of the project\n    // @params _blockDeadLine: Target deadline for completion of fundraising.\n    // @params _fundingGoal: Target goal to be raised for the project (in Wei)\n    // @params _manager: Owner of the project\n    function Project(string _title, string _description, uint _blockDeadLine, uint16 _fundingGoal, address _manager) public {\n        require(_blockDeadLine > block.number);\n\n        title = _title;\n        description = _description;\n        blockCreatedAt = block.number;\n        blockDeadLine = _blockDeadLine;\n        fundingGoal = _fundingGoal;\n        manager = _manager;\n        status = ProjectStatus.Active;\n    }\n\n    // @dev public method for contributing ether to a project\n    function contribute(address _contributerAddress) public payable {\n        require(msg.value >= MIN_CONTRIBUTION);\n\n        backers[_contributerAddress] = true;\n        backersCount++;\n        Contribute(_contributerAddress);\n    }\n    \n    // @dev public method that returns the   following project data:\n    function getSummary() public view returns (address, string, string, uint256, uint16) {\n        return (\n            manager,\n            title,  \n            description,\n            this.balance,\n            backersCount\n        );\n    }\n}",
  "sourcePath": "/Users/zmessinger1/Desktop/Professional/Projects/DAPPS/CrowdChain/ethereum/contracts/Project.sol",
  "compiler": {
    "name": "solc",
    "version": "0.4.19+commit.c4cbbb05.Emscripten.clang"
  },
  "schemaVersion": "2.0.0",
  "updatedAt": "2018-03-13T18:24:36.541Z"
}