{
  "contractName": "ProjectFactory",
  "abi": [
    {
      "constant": true,
      "inputs": [
        {
          "name": "",
          "type": "uint256"
        }
      ],
      "name": "projects",
      "outputs": [
        {
          "name": "",
          "type": "address"
        }
      ],
      "payable": false,
      "stateMutability": "view",
      "type": "function"
    },
    {
      "constant": true,
      "inputs": [
        {
          "name": "",
          "type": "address"
        }
      ],
      "name": "ownerProjectCount",
      "outputs": [
        {
          "name": "",
          "type": "uint256"
        }
      ],
      "payable": false,
      "stateMutability": "view",
      "type": "function"
    },
    {
      "constant": true,
      "inputs": [],
      "name": "projectCount",
      "outputs": [
        {
          "name": "",
          "type": "uint32"
        }
      ],
      "payable": false,
      "stateMutability": "view",
      "type": "function"
    },
    {
      "constant": true,
      "inputs": [],
      "name": "totalContributions",
      "outputs": [
        {
          "name": "",
          "type": "uint32"
        }
      ],
      "payable": false,
      "stateMutability": "view",
      "type": "function"
    },
    {
      "constant": true,
      "inputs": [
        {
          "name": "",
          "type": "uint256"
        }
      ],
      "name": "projectToIndexOwner",
      "outputs": [
        {
          "name": "",
          "type": "address"
        }
      ],
      "payable": false,
      "stateMutability": "view",
      "type": "function"
    },
    {
      "constant": true,
      "inputs": [],
      "name": "totalBackers",
      "outputs": [
        {
          "name": "",
          "type": "uint16"
        }
      ],
      "payable": false,
      "stateMutability": "view",
      "type": "function"
    },
    {
      "constant": true,
      "inputs": [],
      "name": "biggestContribution",
      "outputs": [
        {
          "name": "",
          "type": "uint256"
        }
      ],
      "payable": false,
      "stateMutability": "view",
      "type": "function"
    },
    {
      "anonymous": false,
      "inputs": [
        {
          "indexed": false,
          "name": "title",
          "type": "string"
        },
        {
          "indexed": false,
          "name": "description",
          "type": "string"
        },
        {
          "indexed": false,
          "name": "manager",
          "type": "address"
        }
      ],
      "name": "ProjectCreation",
      "type": "event"
    },
    {
      "constant": false,
      "inputs": [
        {
          "name": "_title",
          "type": "string"
        },
        {
          "name": "_description",
          "type": "string"
        },
        {
          "name": "_blockDeadLine",
          "type": "uint256"
        },
        {
          "name": "_goalEther",
          "type": "uint16"
        }
      ],
      "name": "createProject",
      "outputs": [
        {
          "name": "",
          "type": "uint256"
        }
      ],
      "payable": false,
      "stateMutability": "nonpayable",
      "type": "function"
    },
    {
      "constant": false,
      "inputs": [
        {
          "name": "_projectAddress",
          "type": "address"
        }
      ],
      "name": "contributeToProject",
      "outputs": [],
      "payable": true,
      "stateMutability": "payable",
      "type": "function"
    },
    {
      "constant": true,
      "inputs": [],
      "name": "getSummary",
      "outputs": [
        {
          "name": "",
          "type": "uint256"
        },
        {
          "name": "",
          "type": "uint256"
        },
        {
          "name": "",
          "type": "uint256"
        }
      ],
      "payable": false,
      "stateMutability": "view",
      "type": "function"
    },
    {
      "constant": true,
      "inputs": [],
      "name": "getDeployedProjects",
      "outputs": [
        {
          "name": "",
          "type": "address[]"
        }
      ],
      "payable": false,
      "stateMutability": "view",
      "type": "function"
    }
  ],
  "bytecode": "0x60606040526000600260006101000a81548163ffffffff021916908363ffffffff1602179055506000600260046101000a81548163ffffffff021916908363ffffffff1602179055506000600260086101000a81548161ffff021916908361ffff1602179055506000600355341561007657600080fd5b611722806100856000396000f3006060604052600436106100af576000357c0100000000000000000000000000000000000000000000000000000000900463ffffffff1680630ccbe6af146100b4578063107046bd1461017e5780631b26a7a5146101e157806336fbad261461022e57806337c08923146102635780634051ddac146102985780634105a4c6146102cf5780636665e47b146103325780637ac3886e14610363578063e440a550146103cd578063ff6f4634146103f6575b600080fd5b34156100bf57600080fd5b610168600480803590602001908201803590602001908080601f0160208091040260200160405190810160405280939291908181526020018383808284378201915050505050509190803590602001908201803590602001908080601f0160208091040260200160405190810160405280939291908181526020018383808284378201915050505050509190803590602001909190803561ffff16906020019091905050610424565b6040518082815260200191505060405180910390f35b341561018957600080fd5b61019f60048080359060200190919050506107f8565b604051808273ffffffffffffffffffffffffffffffffffffffff1673ffffffffffffffffffffffffffffffffffffffff16815260200191505060405180910390f35b34156101ec57600080fd5b610218600480803573ffffffffffffffffffffffffffffffffffffffff16906020019091905050610837565b6040518082815260200191505060405180910390f35b341561023957600080fd5b61024161084f565b604051808263ffffffff1663ffffffff16815260200191505060405180910390f35b341561026e57600080fd5b610276610865565b604051808263ffffffff1663ffffffff16815260200191505060405180910390f35b34156102a357600080fd5b6102ab61087b565b60405180848152602001838152602001828152602001935050505060405180910390f35b34156102da57600080fd5b6102f060048080359060200190919050506108c5565b604051808273ffffffffffffffffffffffffffffffffffffffff1673ffffffffffffffffffffffffffffffffffffffff16815260200191505060405180910390f35b341561033d57600080fd5b6103456108f8565b604051808261ffff1661ffff16815260200191505060405180910390f35b341561036e57600080fd5b61037661090c565b6040518080602001828103825283818151815260200191508051906020019060200280838360005b838110156103b957808201518184015260208101905061039e565b505050509050019250505060405180910390f35b34156103d857600080fd5b6103e06109a0565b6040518082815260200191505060405180910390f35b610422600480803573ffffffffffffffffffffffffffffffffffffffff169060200190919050506109a6565b005b600080600180805480600101828161043c9190610be7565b916000526020600020900160008989898933610456610c13565b8080602001806020018681526020018561ffff1661ffff1681526020018473ffffffffffffffffffffffffffffffffffffffff1673ffffffffffffffffffffffffffffffffffffffff168152602001838103835288818151815260200191508051906020019080838360005b838110156104dd5780820151818401526020810190506104c2565b50505050905090810190601f16801561050a5780820380516001836020036101000a031916815260200191505b50838103825287818151815260200191508051906020019080838360005b83811015610543578082015181840152602081019050610528565b50505050905090810190601f1680156105705780820380516001836020036101000a031916815260200191505b50975050505050505050604051809103906000f080151561059057600080fd5b909190916101000a81548173ffffffffffffffffffffffffffffffffffffffff021916908373ffffffffffffffffffffffffffffffffffffffff160217905550039050336005600083815260200190815260200160002060006101000a81548173ffffffffffffffffffffffffffffffffffffffff021916908373ffffffffffffffffffffffffffffffffffffffff160217905550600660003373ffffffffffffffffffffffffffffffffffffffff1673ffffffffffffffffffffffffffffffffffffffff168152602001908152602001600020600081548092919060010191905055506002600081819054906101000a900463ffffffff168092919060010191906101000a81548163ffffffff021916908363ffffffff160217905550507fde8b87f8cdc26b767d4a6adc9912c53cd7f7a50246dedf7d19de6e0c55dcb2db8686336040518080602001806020018473ffffffffffffffffffffffffffffffffffffffff1673ffffffffffffffffffffffffffffffffffffffff168152602001838103835286818151815260200191508051906020019080838360005b8381101561074957808201518184015260208101905061072e565b50505050905090810190601f1680156107765780820380516001836020036101000a031916815260200191505b50838103825285818151815260200191508051906020019080838360005b838110156107af578082015181840152602081019050610794565b50505050905090810190601f1680156107dc5780820380516001836020036101000a031916815260200191505b509550505050505060405180910390a180915050949350505050565b60018181548110151561080757fe5b90600052602060002090016000915054906101000a900473ffffffffffffffffffffffffffffffffffffffff1681565b60066020528060005260406000206000915090505481565b600260009054906101000a900463ffffffff1681565b600260049054906101000a900463ffffffff1681565b6000806000600260049054906101000a900463ffffffff16600260089054906101000a900461ffff166001805490508263ffffffff1692508161ffff169150925092509250909192565b60056020528060005260406000206000915054906101000a900473ffffffffffffffffffffffffffffffffffffffff1681565b600260089054906101000a900461ffff1681565b610914610c23565b600180548060200260200160405190810160405280929190818152602001828054801561099657602002820191906000526020600020905b8160009054906101000a900473ffffffffffffffffffffffffffffffffffffffff1673ffffffffffffffffffffffffffffffffffffffff168152602001906001019080831161094c575b5050505050905090565b60035481565b806000806101000a81548173ffffffffffffffffffffffffffffffffffffffff021916908373ffffffffffffffffffffffffffffffffffffffff1602179055506000809054906101000a900473ffffffffffffffffffffffffffffffffffffffff1673ffffffffffffffffffffffffffffffffffffffff166373e888fd34336040518363ffffffff167c0100000000000000000000000000000000000000000000000000000000028152600401808273ffffffffffffffffffffffffffffffffffffffff1673ffffffffffffffffffffffffffffffffffffffff1681526020019150506000604051808303818588803b1515610aa157600080fd5b6125ee5a03f11515610ab257600080fd5b505050506002600481819054906101000a900463ffffffff168092919060010191906101000a81548163ffffffff021916908363ffffffff16021790555050600460003373ffffffffffffffffffffffffffffffffffffffff1673ffffffffffffffffffffffffffffffffffffffff16815260200190815260200160002060009054906101000a900460ff161515610bd2576001600460003373ffffffffffffffffffffffffffffffffffffffff1673ffffffffffffffffffffffffffffffffffffffff16815260200190815260200160002060006101000a81548160ff0219169083151502179055506002600881819054906101000a900461ffff168092919060010191906101000a81548161ffff021916908361ffff160217905550505b600354341115610be457346003819055505b50565b815481835581811511610c0e57818360005260206000209182019101610c0d9190610c37565b5b505050565b604051610a9a80610c5d83390190565b602060405190810160405280600081525090565b610c5991905b80821115610c55576000816000905550600101610c3d565b5090565b9056006060604052341561000f57600080fd5b604051610a9a380380610a9a83398101604052808051820191906020018051820191906020018051906020019091908051906020019091908051906020019091905050438311151561006057600080fd5b8460019080519060200190610076929190610127565b50836002908051906020019061008d929190610127565b50436003819055508260048190555081600560006101000a81548161ffff021916908361ffff160217905550806000806101000a81548173ffffffffffffffffffffffffffffffffffffffff021916908373ffffffffffffffffffffffffffffffffffffffff1602179055506001600560026101000a81548160ff0219169083600281111561011857fe5b021790555050505050506101cc565b828054600181600116156101000203166002900490600052602060002090601f016020900481019282601f1061016857805160ff1916838001178555610196565b82800160010185558215610196579182015b8281111561019557825182559160200191906001019061017a565b5b5090506101a391906101a7565b5090565b6101c991905b808211156101c55760008160009055506001016101ad565b5090565b90565b6108bf806101db6000396000f300606060405260043610610098576000357c0100000000000000000000000000000000000000000000000000000000900463ffffffff168062087f221461009d5780631d565e78146100c65780634051ddac146100f7578063481c6a751461023a5780634a79d50c1461028f5780637284e4161461031d57806373e888fd146103ab5780637a3a0e84146103d9578063b2ab7ecc1461040a575b600080fd5b34156100a857600080fd5b6100b0610433565b6040518082815260200191505060405180910390f35b34156100d157600080fd5b6100d9610439565b604051808261ffff1661ffff16815260200191505060405180910390f35b341561010257600080fd5b61010a61044d565b604051808673ffffffffffffffffffffffffffffffffffffffff1673ffffffffffffffffffffffffffffffffffffffff16815260200180602001806020018581526020018461ffff1661ffff168152602001838103835287818151815260200191508051906020019080838360005b83811015610194578082015181840152602081019050610179565b50505050905090810190601f1680156101c15780820380516001836020036101000a031916815260200191505b50838103825286818151815260200191508051906020019080838360005b838110156101fa5780820151818401526020810190506101df565b50505050905090810190601f1680156102275780820380516001836020036101000a031916815260200191505b5097505050505050505060405180910390f35b341561024557600080fd5b61024d6105fa565b604051808273ffffffffffffffffffffffffffffffffffffffff1673ffffffffffffffffffffffffffffffffffffffff16815260200191505060405180910390f35b341561029a57600080fd5b6102a261061f565b6040518080602001828103825283818151815260200191508051906020019080838360005b838110156102e25780820151818401526020810190506102c7565b50505050905090810190601f16801561030f5780820380516001836020036101000a031916815260200191505b509250505060405180910390f35b341561032857600080fd5b6103306106bd565b6040518080602001828103825283818151815260200191508051906020019080838360005b83811015610370578082015181840152602081019050610355565b50505050905090810190601f16801561039d5780820380516001836020036101000a031916815260200191505b509250505060405180910390f35b6103d7600480803573ffffffffffffffffffffffffffffffffffffffff1690602001909190505061075b565b005b34156103e457600080fd5b6103ec610865565b604051808261ffff1661ffff16815260200191505060405180910390f35b341561041557600080fd5b61041d610879565b6040518082815260200191505060405180910390f35b60035481565b600760009054906101000a900461ffff1681565b600061045761087f565b61045f61087f565b6000806000809054906101000a900473ffffffffffffffffffffffffffffffffffffffff16600160023073ffffffffffffffffffffffffffffffffffffffff1631600760009054906101000a900461ffff16838054600181600116156101000203166002900480601f0160208091040260200160405190810160405280929190818152602001828054600181600116156101000203166002900480156105465780601f1061051b57610100808354040283529160200191610546565b820191906000526020600020905b81548152906001019060200180831161052957829003601f168201915b50505050509350828054600181600116156101000203166002900480601f0160208091040260200160405190810160405280929190818152602001828054600181600116156101000203166002900480156105e25780601f106105b7576101008083540402835291602001916105e2565b820191906000526020600020905b8154815290600101906020018083116105c557829003601f168201915b50505050509250945094509450945094509091929394565b6000809054906101000a900473ffffffffffffffffffffffffffffffffffffffff1681565b60018054600181600116156101000203166002900480601f0160208091040260200160405190810160405280929190818152602001828054600181600116156101000203166002900480156106b55780601f1061068a576101008083540402835291602001916106b5565b820191906000526020600020905b81548152906001019060200180831161069857829003601f168201915b505050505081565b60028054600181600116156101000203166002900480601f0160208091040260200160405190810160405280929190818152602001828054600181600116156101000203166002900480156107535780601f1061072857610100808354040283529160200191610753565b820191906000526020600020905b81548152906001019060200180831161073657829003601f168201915b505050505081565b67016345785d8a0000341015151561077257600080fd5b6001600660008373ffffffffffffffffffffffffffffffffffffffff1673ffffffffffffffffffffffffffffffffffffffff16815260200190815260200160002060006101000a81548160ff0219169083151502179055506007600081819054906101000a900461ffff168092919060010191906101000a81548161ffff021916908361ffff160217905550507feb26121e73b1a2c6db5119033f264a3dd36e3e1298d38cda9e387836405861bd81604051808273ffffffffffffffffffffffffffffffffffffffff1673ffffffffffffffffffffffffffffffffffffffff16815260200191505060405180910390a150565b600560009054906101000a900461ffff1681565b60045481565b6020604051908101604052806000815250905600a165627a7a72305820446bd93f970186a8661f0872051cd1b263bbb4a37c8f7c37e9e4ae88045a16df0029a165627a7a723058207e850c049395c6ec79898db5197c4261a998ceb650bcc7000256967f39cbb0b00029",
  "source": "pragma solidity ^0.4.17;\n\nimport './Project.sol';\n\ncontract ProjectFactory {\n\n    // Import project contract;\n    Project projectContract;\n\n    // ProjectFactory state variables.\n    Project[] public projects;\n    uint32 public projectCount = 0;\n    uint32 public totalContributions = 0;\n    uint16 public totalBackers = 0;\n    uint256 public biggestContribution = 0;\n    mapping(address => bool) backers;\n    mapping(uint => address) public projectToIndexOwner;\n    mapping(address => uint) public ownerProjectCount;\n\n    // ProjectFactory Events\n    event ProjectCreation(string title, string description, address manager);\n\n    function createProject(string _title, string _description, uint _blockDeadLine, uint16 _goalEther) public returns (uint) {\n        uint newProjectId = projects.push(new Project(_title, _description, _blockDeadLine, _goalEther, msg.sender)) - 1;\n        projectToIndexOwner[newProjectId] = msg.sender;\n        ownerProjectCount[msg.sender]++;\n        projectCount++;\n        ProjectCreation(_title, _description, msg.sender);\n        return (newProjectId);\n    }\n\n    function contributeToProject(address _projectAddress) public payable {\n        projectContract = Project(_projectAddress);\n        projectContract.contribute.value(msg.value)(msg.sender);\n        totalContributions++;\n\n        if (!backers[msg.sender]) {\n            backers[msg.sender] = true;\n            totalBackers++;\n        }\n\n        if (msg.value > biggestContribution) {\n            biggestContribution = msg.value;\n        }\n    }\n\n    function getSummary() public view returns (uint, uint, uint) {\n        return (\n            totalContributions,\n            totalBackers,\n            projects.length\n        );\n    }\n\n    function getDeployedProjects() public view returns (Project[]) {\n        return projects;\n    }\n\n}",
  "sourcePath": "/Users/zmessinger1/Desktop/Professional/Projects/DAPPS/CrowdChain/ethereum/contracts/ProjectFactory.sol",
  "compiler": {
    "name": "solc",
    "version": "0.4.19+commit.c4cbbb05.Emscripten.clang"
  },
  "schemaVersion": "2.0.0",
  "updatedAt": "2018-03-13T20:22:30.165Z"
}